{
  "contractName": "Challenge",
  "abi": [
    {
      "inputs": [],
      "stateMutability": "nonpayable",
      "type": "constructor"
    },
    {
      "anonymous": false,
      "inputs": [
        {
          "indexed": false,
          "internalType": "string",
          "name": "message",
          "type": "string"
        },
        {
          "indexed": false,
          "internalType": "uint256",
          "name": "size",
          "type": "uint256"
        }
      ],
      "name": "Error",
      "type": "event"
    },
    {
      "inputs": [
        {
          "internalType": "bytes",
          "name": "_array",
          "type": "bytes"
        }
      ],
      "name": "receiveArray",
      "outputs": [
        {
          "internalType": "uint256",
          "name": "_gasBurnt",
          "type": "uint256"
        }
      ],
      "stateMutability": "nonpayable",
      "type": "function"
    }
  ],
  "bytecode": "0x608060405234801561001057600080fd5b506106d9806100206000396000f3fe608060405234801561001057600080fd5b506004361061002b5760003560e01c80636a3b97a214610030575b600080fd5b61004a6004803603810190610045919061029a565b610060565b6040516100579190610412565b60405180910390f35b60006001825110156100ad577f9650ad08b88215400660b7ab78ee0a1c7933fea1fcb264237651d8809c13a8c4825160405161009c91906103b6565b60405180910390a1600090506101d5565b60006100ea6100c7600c85516101da90919063ffffffff16565b6100dc615f045a6101f090919063ffffffff16565b6101f090919063ffffffff16565b9050620186a0811015610138577f9650ad08b88215400660b7ab78ee0a1c7933fea1fcb264237651d8809c13a8c48160405161012691906103e4565b60405180910390a160019150506101d5565b600061014d5a8361020690919063ffffffff16565b90506000610167826201d4c061020690919063ffffffff16565b9050600061017f60b38361021c90919063ffffffff16565b90506101945a8561020690919063ffffffff16565b9450505050506101d5565b818110156101ba5780806101b2906105cd565b91505061019f565b506101ce5a8561020690919063ffffffff16565b9450505050505b919050565b600081836101e89190610526565b905092915050565b600081836101fe919061049f565b905092915050565b600081836102149190610580565b905092915050565b6000818361022a91906104f5565b905092915050565b60006102456102408461045e565b61042d565b90508281526020810184848401111561025d57600080fd5b6102688482856105be565b509392505050565b600082601f83011261028157600080fd5b8135610291848260208601610232565b91505092915050565b6000602082840312156102ac57600080fd5b600082013567ffffffffffffffff8111156102c657600080fd5b6102d284828501610270565b91505092915050565b60006102e8602d8361048e565b91507f4572726f722c2061727261792073697a652073686f756c64206265206772656160008301527f746572207468616e207a65726f000000000000000000000000000000000000006020830152604082019050919050565b600061034e60328361048e565b91507f4572726f722c206761732073656e7420696e2074782073686f756c642062652060008301527f67726561746572207468616e203130304b2000000000000000000000000000006020830152604082019050919050565b6103b0816105b4565b82525050565b600060408201905081810360008301526103cf816102db565b90506103de60208301846103a7565b92915050565b600060408201905081810360008301526103fd81610341565b905061040c60208301846103a7565b92915050565b600060208201905061042760008301846103a7565b92915050565b6000604051905081810181811067ffffffffffffffff8211171561045457610453610674565b5b8060405250919050565b600067ffffffffffffffff82111561047957610478610674565b5b601f19601f8301169050602081019050919050565b600082825260208201905092915050565b60006104aa826105b4565b91506104b5836105b4565b9250827fffffffffffffffffffffffffffffffffffffffffffffffffffffffffffffffff038211156104ea576104e9610616565b5b828201905092915050565b6000610500826105b4565b915061050b836105b4565b92508261051b5761051a610645565b5b828204905092915050565b6000610531826105b4565b915061053c836105b4565b9250817fffffffffffffffffffffffffffffffffffffffffffffffffffffffffffffffff048311821515161561057557610574610616565b5b828202905092915050565b600061058b826105b4565b9150610596836105b4565b9250828210156105a9576105a8610616565b5b828203905092915050565b6000819050919050565b82818337600083830152505050565b60006105d8826105b4565b91507fffffffffffffffffffffffffffffffffffffffffffffffffffffffffffffffff82141561060b5761060a610616565b5b600182019050919050565b7f4e487b7100000000000000000000000000000000000000000000000000000000600052601160045260246000fd5b7f4e487b7100000000000000000000000000000000000000000000000000000000600052601260045260246000fd5b7f4e487b7100000000000000000000000000000000000000000000000000000000600052604160045260246000fdfea264697066735822122062e3ede1aedc121d667c52aa8569c0f33b2f914d889ab4ec0e22835573fbd83c64736f6c63430008000033",
  "immutableReferences": {},
  "source": "//SPDX-License-Identifier: MIT\n// pragma solidity >= 0.5.0 <= 0.7.0;\npragma solidity ^0.8.0 ; \n\n// From the Openzeppelin team, library below to check for overflows and underflows in all math operations\nimport \"../contracts/SafeMath.sol\";\n\n\ncontract Challenge \n{\n\n// error codes for events\n// 0 == wrong array size \n// 1 == gas sent lower than required\n event Error( string message, uint size) ;\n\n using SafeMath for uint256;\n\n  constructor() public { }\n\n// receives an array of bytes and returns how much total gas was burnt in the transaction\nfunction receiveArray(bytes memory _array) public returns (uint _gasBurnt)\n    {\n        if ( _array.length < 1 )\n           { \n           \t emit Error(\"Error, array size should be greater than zero\", _array.length ) ; \n             return (0) ; \n            } \n     \n        // calculate the total gas that was recceived in this transaction so we can burn\n        // enough to be within the limits of the requirement: between 100k and 120k\n\n //   \tuint  gasAtinit = ( gasleft().add(22538)).add( (_array.length).mul(12) ) ; \n    \tuint  gasAtinit = ( gasleft().add(24324)).add( (_array.length).mul(12) ) ; \n\n        if ( gasAtinit < 100000 )\n           { \n           \t emit Error(\"Error, gas sent in tx should be greater than 100K \", gasAtinit ) ; \n             return (1) ; \n            } \n\n\n// each iteration consumes 56 weis, formulae below calculates how many iterations to be executed \n// uint256 totalIterations = ( max1.sub( sizeArray.mul(12) ) ).div(56) ; \n\n// we burn gas below until the target objective 100k is met\n\n\nuint gasSpent =  gasAtinit.sub( gasleft() )  ; \n\nuint gasToBurn = uint(120000).sub(gasSpent) ; \n\n// each cycle below costs 179 weis\n\nuint cycles = gasToBurn.div(179); \n\nreturn ( gasAtinit.sub( gasleft() ) ) ;  \n\n\n\t\tfor (uint i=0; i<cycles ; i++)\n\t\t{\n\t\t\t// do nothing, just doing this to spend weis on each cycle iteration\n\t\t}\n\n// returns the gas spent\n     return ( gasAtinit.sub( gasleft() ) ) ; \n\n    } // End receiveArray() \n\n\n} // End Contract Challenge\n\n",
  "sourcePath": "/Users/diegoe.cruces/src/generatest/contracts/Challenge.sol",
  "compiler": {
    "name": "solc",
    "version": "0.8.0+commit.c7dfd78e.Emscripten.clang"
  },
  "schemaVersion": "3.2.3",
  "updatedAt": "2021-07-21T18:44:36.983Z",
  "networkType": "ethereum",
  "devdoc": {
    "kind": "dev",
    "methods": {},
    "version": 1
  },
  "userdoc": {
    "kind": "user",
    "methods": {},
    "version": 1
  }
}